:1040000000000120AD650000A9650000A965000061
:10401000A9650000A9650000A9650000A965000068
:10402000A9650000A9650000A9650000A965000058
:10403000A9650000F8BD0000A9650000A9650000A1
:10404000A9650000A9650000A9650000A965000038
:10405000A9650000A9650000A9650000A965000028
:10406000A9650000A9650000A9650000D5690000E8
:10407000A9650000A9650000A9650000A965000008
:10408000A9650000A9650000A9650000A9650000F8
:10409000A9650000A9650000A9650000A9650000E8
:1040A000A9650000A9650000A9650000A9650000D8
:1040B000A9650000A9650000A965000009B5000018
:1040C000ADB40000A9B4000061AD000005B500006A
:1040D000B1B40000C9B40000B5B40000419D0000B7
:1040E00049B50000A9650000A9650000A9650000A8
:1040F000A9650000A9650000A9650000A965000088
:10410000A9650000A9650000A9650000A965000077
:10411000A9650000A9650000A9650000A965000067
:10412000A9650000A9650000A9650000A965000057
:10413000A965000008B502F05FFC01F005FB02F084
:104140003BFB00F008F800F05DFDFAE708B500F071
:1041500077FD012008BD00B5A3B001A802F06EFBF9
:1041600010B123B05DF804FB01A800F005F8F8E7F2
:10417000002070470020704718B310B5CEB0044639
:10418000FFF7E4FF80B9214611F8012B8DF8B42028
:1041900012F0800F0AD10DF1B50007F093FC6946CB
:1041A0002DA800F00FF818B14EB010BD8022F2E734
:1041B0006846FFF7DDFF0028F6D16846FFF7DAFF13
:1041C000F2E770472DE9F047002800F067810C46C0
:1041D0000546002900F064810378012B40F26281DA
:1041E000B0220021204607F07AFC6A78AB7842EAD8
:1041F0000322134602F007022270C3F3C007677060
:10420000C3F30011A170C3F34011E170C3F3801C2C
:1042100084F804C0C3F3002E84F805E0C3F34026FD
:10422000A671C3F38121E171980B6072C3F301336E
:104230002372032B00F03A81043A032A40F23881BA
:10424000012900F03781012800F03681002F40F06D
:104250003581002E40F03481BEF1000F07D12A785D
:10426000022A40F22F81EA78A272032700E0022797
:10427000012B67D94FF00008C646022B00F0AB8037
:10428000BEF1000F0FD07B1C2A78934280F21C8174
:10429000EA195278A2810237FFB255FA83F35B78AC
:1042A00042EA0322A281022900F09780032900F04C
:1042B000A480B8F1000F0FD07B1C2A78934280F2C3
:1042C0000981EA19527822830237FFB255FA83F343
:1042D0005B7842EA03222283637A022B00F09B8000
:1042E000032B00F0A880237A012B40F2B2802B78B8
:1042F0003946BA1C934211DDDA1B023AD2B284F875
:10430000A820802A00F2F0802944013104F128001D
:1043100007F0D8FB94F8A8301F44FFB2284610F8E5
:10432000011B023901F02EFA7A1C2F447B7855FAD2
:1043300082F56A7843EA0223984240F0D780A4F8D5
:10434000AC30B0E08A1ED2B2012A13D94FF0000E71
:10435000821ED2B2012A10D94FF00008BEF1000F20
:104360008BD0B8F1000F88D0BCF1000F85D04FF092
:10437000000882E74FF0010EEAE74FF00108EDE791
:104380000133DBB2112B3FF67BAF03EB8302DFF887
:1043900060A11AF802209142F2D103EB830A544A39
:1043A000524452789042EBD1514A5244127994458A
:1043B000E6D1D1464E4A914499F802E0BEF1000E92
:1043C00018BF4FF0010E99F80380B8F1000818BF2C
:1043D0004FF00108D4E73346D4E77B1C2A78934298
:1043E00074DAEA19527822820237FFB255FA83F35F
:1043F0005B7842EA0322228258E7FB1D2A78934227
:1044000066DAE9190822013104F1100007F05AFBBD
:104410000837FFB24DE77A1C29788A425CDAE9193D
:10442000497821840237FFB255FA82F2527841EA84
:104430000221218454E7FB1D2A7893424EDAE919C0
:104440000822013104F1200007F03CFB0837FFB2DD
:1044500049E7E37923B92378012B15D0032B13D037
:10446000637A002B7FF443AF2378012B02D0032B18
:104470007FF43DAFE379ABB3022204F10C0104F108
:10448000180007F01FFB32E7637A4BB3022204F1F6
:10449000180104F10C0007F015FBE1E7012602E02A
:1044A000012600E002263046BDE8F0870526FAE73F
:1044B0000626F8E70426F6E70426F4E70326F2E7E3
:1044C0000326F0E70226EEE70226ECE70E46EAE7CF
:1044D0000226E8E70226E6E71E46E4E70226E2E7D0
:1044E0000426E0E70426DEE70226DCE70726DAE713
:1044F00014BC0000436893420AD25A1C426001EB8C
:1045000003104FF0FF33836043600023C3607047A4
:10451000002070470170426083600023C3607047D1
:10452000F8B506460846194637680BE05D2C67D09B
:104530007D2C65D03A2C63D0203CE4B25E2C5BD855
:1045400001353560356895425AD2445D002C57D00C
:104550002C2CEBD8092CEFD3A4F1090CBCF1230FC0
:10456000EAD801A353F82CF00146000001460000F0
:10457000394500003945000001460000394500007A
:104580003945000039450000394500003945000033
:104590003945000039450000394500003945000023
:1045A0003945000039450000394500003945000013
:1045B0003945000039450000394500003945000003
:1045C000394500000146000039450000394500002A
:1045D00039450000394500003945000039450000E3
:1045E00039450000394500003945000039450000D3
:1045F000394500000146000037606FF001000EE011
:1046000071B1069A3046FFF775FF68B133683A46D4
:104610000421FFF77FFF3368013B33600020F8BDC2
:10462000013D35600020FAE737604FF0FF30F6E7D4
:1046300070B505460668701C286048E0002B00F045
:104640009980049A19462846FFF754FF30B12B6829
:10465000721C0321FFF75EFF00200AE02E604FF07E
:10466000FF3006E022282FD02F282DD02E606FF0AB
:10467000010070BD01342C604FF0000E03E00130EA
:1046800028600EF1010EBEF1030F1ADC286890427B
:1046900017D20C5CACB1A4F1300C5FFA8CFCBCF10D
:1046A000090FECD9A4F1410C5FFA8CFCBCF1050FA9
:1046B000E5D9613CE4B2052CE1D92E606FF0010030
:1046C000D7E72868013828602868013028602C68FE
:1046D00094424BD2085D002848D02228AED05C28F6
:1046E000F2D101349442EFD22C60085D7528BDD818
:1046F0005C28B7D35C381928B8D80FF2080C5CF8DE
:1047000020F000BFC94600006D4600006D46000065
:104710006D4600006D4600006D460000C946000071
:104720006D4600006D4600006D460000C946000061
:104730006D4600006D4600006D4600006D460000AD
:104740006D4600006D4600006D460000C946000041
:104750006D4600006D4600006D460000C946000031
:104760006D460000C9460000754600002E606FF0DF
:1047700002007EE700207CE770B505460C469DF8F8
:1047800018600888411C218022212954208800F1CA
:10479000010CA4F800C02A542288501C2080A9547F
:1047A0002288511C21803A21A95426B92288511C03
:1047B00021802221A9542088059A9DF810102844B0
:1047C00000F08AFF2388184480B220801EB9431C61
:1047D000238022232B5423885A1C22802C22EA5423
:1047E00070BD00002DE9F04782B0054688461746A7
:1047F0001E46DDF828A0D0F8049096E07B2C27D048
:104800001AD97D2C1CD0CDF800A033463A4641463B
:104810002846FFF785FE0028C0F24A8109F1010908
:10482000AB68B3F1FF3F7DD0002E7BD006EB0313C6
:10483000DA680132DA6075E05B2C09D05D2CE2D1D8
:10484000002E6FD07D2C25D002206C68013C24E026
:1048500009F10109002E65D0524631462846FFF77E
:1048600049FE0246002800F01B81AB68B3F1FF3F10
:1048700004D006EB0313D9680131D9607B2C07D033
:10488000022313702B6853606B68013BAB6049E0F7
:104890000123F6E70120D8E7013C002C12DB06EBF0
:1048A00004125168B1F1FF3FF6D09168B1F1FF3FBA
:1048B000F2D11178814240F0F6804FF0FF31A960CB
:1048C00001339360B4F1FF3F03D16FF00109E3E0DE
:1048D000013C002C26DB06EB04135A68B2F1FF3FC3
:1048E000F6D09B68B3F1FF3FF2D1AC601AE0CDF88F
:1048F00000A033463A4641462846FFF799FE002875
:10490000C0F2D48009F10109AB68B3F1FF3F09D0CF
:1049100046B106EB0313DA680132DA6002E06B6835
:10492000013BAB602B6801332B602B68BB4280F0EE
:10493000A08018F80340002C00F09B803A2C3FF632
:104940005DAF092CFFF45FAF093C312C3FF65BAF44
:1049500001A353F824F000BF2549000025490000B9
:1049600007480000074800002549000007480000EC
:1049700007480000074800000748000007480000FB
:1049800007480000074800000748000007480000EB
:1049900007480000074800000748000007480000DB
:1049A00007480000074800000748000007480000CB
:1049B000074800002549000007480000EF480000B4
:1049C00007480000074800000748000007480000AB
:1049D000074800000748000007480000074800009B
:1049E00007480000214A000007480000074800006F
:1049F000074800000748000007480000074800007B
:104A0000074800000748000007480000074800006A
:104A10000748000007480000074800001F49000041
:104A2000002E3FF47FAFAB68B3F1FF3F3FF47AAFA6
:104A30001B01F35C022B3FF475AF012B3FF472AF07
:104A40006A68013A00E0013A002AFFF66BAF1301F1
:104A500006EB0211F35C013BDBB2012BF3D84B6890
:104A6000B3F1FF3FEFD08B68B3F1FF3FEBD1AA600A
:104A700058E78EB16B68013B00E0013B002B0BDB7C
:104A800006EB03125168B1F1FF3FF6D09268B2F124
:104A9000FF3FF2D16FF00209484602B0BDE8F0874F
:104AA0004FF0FF39F8E76FF00109F5E78146F3E7CA
:104AB0008146F1E70023036043604FF0FF338360DA
:104AC000704770B5A6B005460E4600242394249482
:104AD00025948022214603A807F001F823A8FFF7B8
:104AE000E9FF0823009303AB3246294623A8FFF7CA
:104AF00079FE01E00134E4B2224626AB03EB041355
:104B000013F88C3C43B3072C26D8012BF2D0032B8F
:104B100002D00134E4B2EFE726AB03EB021252F805
:104B2000883CEB5C432B02D00134E4B2E4E701346F
:104B3000E4B226AB03EB041353F8880C0A220021DD
:104B4000284407F057F8C0B2A0F10B03DBB20F2BDB
:104B5000EAD801F0C5FEE7E726B070BD08B5164BF0
:104B60001B7813B1012B0CD008BD7B28FCD1134A54
:104B70000023137001231370114A10700E4A137032
:104B8000F2E70E4A1378591CC9B211700C4AD0547E
:104B90000D2807D00F29E7D90023084A1370064AC9
:104BA0001370E1E71046FFF78CFF0023034A1370F0
:104BB000014A1370D8E700BF890200208802002054
:104BC0007802002038B504460D4605E014F8010BC4
:104BD00001F0F6FE013DADB2002DF7D138BD000069
:104BE000064A13780649C8540133DBB213700F2B01
:104BF00002D9134600221A70704700BF9C0400209F
:104C00008C04002008B50B4B1A780B4B1B789A428A
:104C10000ED00A4AD05CFFF7A1FF074A1378013390
:104C2000DBB213700F2BEED9134600221A70EAE79D
:104C300008BD00BF9C0400209D0400208C040020BF
:104C40002DE9F04387B005460026ADF81660554CB7
:104C50004FF400723146204606F041FFBDF8163091
:104C60005A1CADF816207B22E2544FF00109CDF812
:104C70000890DFF83881CDF80480042700972B785E
:104C80004C220DF116012046FFF776FDCDF8089075
:104C9000CDF80480009795F8813051220DF116016E
:104CA0002046FFF769FDCDF80890CDF80480009705
:104CB00095F9823052220DF116012046FFF75CFD76
:104CC000CDF80890CDF80480009795F88330432202
:104CD0000DF116012046FFF74FFDBDF8163003EB2E
:104CE000090292B2ADF816202221E15402EB090329
:104CF0009BB2ADF816305320A05403EB090292B2D8
:104D0000ADF81620E15402EB09039BB2ADF8163062
:104D10003A20A05403EB0902ADF81620E1543146C5
:104D200017E06B185A7814090CF101039BB2ADF827
:104D300016301D4810F804E01A4C04F80CE002F09C
:104D40000F0203F1010CADF816C0825CE254013190
:104D5000C9B22B788B4204D9BDF816C0BCF5FB7FD5
:104D6000DFD9BDF81620531C9BB2ADF816300D48A4
:104D7000222181545A1C92B2ADF816207D21C154D3
:104D8000531C9BB2ADF816300A218154591C89B2CC
:104D9000ADF816100D22C254FFF714FF07B0BDE89E
:104DA000F08300BF8C02002074BC000070BC0000C7
:104DB0009A4200D28854704770470146002007E0AD
:104DC00000EB8000531C0B60137803EB400030387D
:104DD0000A681378303BDBB2092BF1D970472DE913
:104DE000F04F83B005460E4693461F46DDF830A0CF
:104DF0000D9CDDF838900F9B13F0030F19D1A046DE
:104E00000192C84509D202F1010B3B4631462020F0
:104E1000A84708F101085A46F3E7DDF804B008E0B6
:104E2000013C02F101083B4631461AF80400A8474C
:104E30004246002CF4D10F9B13F0020F03D1104611
:104E400003B0BDE8F08FA2EB0B034B45F7D2541C27
:104E50003B4631462020A8472246F4E72DE9F0439F
:104E600085B00C9D0D9C9DF83890DDF83C80DDF8F8
:104E700040E0119F129E16F0020F21D17FB116F073
:104E8000010F0CD0B9F1000F02D116F00C0F06D0B3
:104E9000013F04E04FF0300C05F804C001347445C4
:104EA00001D21F2CF6D916F0010F09D0BC4207D24F
:104EB0001F2C05D84FF0300C05F804C00134F2E780
:104EC00016F0100F17D016F4806F04D11CB1744582
:104ED00024D0BC4222D0B8F1100F2BD0B8F1100F63
:104EE00033D0B8F1020F3BD01F2C04D84FF0300C58
:104EF00005F804C001341F2C07D8B9F1000F37D0D2
:104F00004FF02D0C05F804C001340396029701946C
:104F10000095FFF764FF05B0BDE8F083B4F1010C24
:104F200006D0B8F1100F01D06446D4E7023CD2E7B6
:104F30006446D0E716F0200FD0D11F2CCED84FF00A
:104F4000780C05F804C00134CEE716F0200FC8D065
:104F50001F2CC6D84FF0580C05F804C00134C3E725
:104F60001F2CC1D84FF0620C05F804C00134BBE718
:104F700016F0040F05D04FF02B0C05F804C00134D7
:104F8000C3E716F0080FC0D04FF0200C05F804C09E
:104F90000134BAE7F0B591B0169C189D1B9E0CB970
:104FA00026F0100616F4806E16D064B34FF0000E93
:104FB00012E00CF1300C5FFA8CFC0EF101070EF1DF
:104FC000400EEE440EF820CCB4FBF5FCAC421BD3F3
:104FD0001F2F19D8BE466446B4FBF5FC05FB1C4CDC
:104FE0005FFA8CFCBCF1090FE3D916F0200F08D052
:104FF0004127BC445FFA8CFCACF10A0C5FFA8CFCD4
:10500000DBE76127F5E7274606961A9C0594199C6D
:10501000049403959DF85C400294019708AC0094B9
:10502000FFF71CFF11B0F0BD2DE9F04F95B00990CE
:105030000A910B929B461E9D1F9E229FDDF88C803D
:10504000DDF898A055EA060301D12AF0100A1AF4F7
:1050500080641FD055EA060330D000241AE003F123
:105060003002D2B204F1010904F150030DEB030444
:1050700004F8202C3A4643462846314606F092FB77
:10508000BD4276EB08031BD3B9F11F0F18D84C466D
:1050900005460E463A4643462846314606F082FB10
:1050A000D3B2092BDBD91AF0200F05D041221A44C4
:1050B000D2B20A3AD2B2D5E76122F8E74FF000093E
:1050C000CDF818A0259B0593249B049303979DF886
:1050D00080300293CDF804900CAB00935B460B9AA2
:1050E0000A990998FFF7BAFE15B0BDE8F08F0000E5
:1050F0002DE9F04F8FB0074616460D938B460029D9
:1051000000F0D88200240D9B1878002800F0D4828B
:10511000252809D0651C334622465946B8470D9BC1
:1051200001330D932C46EEE701330D9300250D9BC3
:105130001978A1F12002102A0AD8DFE802F0380914
:10514000093D0909090909090933092E0909290035
:10515000A1F13003DBB2092B33D92A2936D0002341
:105160000A930D9B1A782E2A40D04FF0000A0D9A10
:105170001378683B122B77D8DFE803F064767276F9
:105180005676767676767676767676767676D300F8
:1051900045F0010501330D93C9E745F002050133E0
:1051A0000D93C4E745F0040501330D93BFE745F0C7
:1051B000080501330D93BAE745F0100501330D934F
:1051C000B5E70DA8FFF7F9FD0A90CAE7189B1A1D6D
:1051D00018921868002804DB0A900D9B01330D9388
:1051E000BFE745F0020543420A93F6E745F48065C0
:1051F0005A1C0D925A78A2F13003DBB2092B04D964
:105200002A2A07D04FF0000AB1E70DA8FFF7D5FD15
:105210008246ACE7189B1A1D18921B6823EAE37AB2
:105220000D9B01330D93A2E745F48071531C0D9340
:1052300052786C2A01D00D4616E045F440750133D2
:105240000D9311E045F08001531C0D935278682AAC
:1052500001D00D4608E045F0C00501330D9303E091
:1052600045F4007501320D920D9B1878A0F12503CD
:10527000532B00F21582DFE813F008021302130229
:105280001302130213021302130213021302130276
:105290001302130213021302130213021302130266
:1052A0001302130213021302130213021302130256
:1052B0001302130213021302130213021302130246
:1052C0001302130213021302130213021302130236
:1052D0001302130213021302130213021302130226
:1052E00059001302130213021302130213021302D2
:1052F0001302130259004F01590013021302130243
:10530000130259001302130213021302130259006D
:10531000ED01130213028801130259001302130254
:10532000590045F4807501320D929DE7782809D027
:1053300058283AD06F283AD062283AD025F0100584
:105340000A2300E01023582835D0692803D06428A8
:1053500001D025F00C0515F4806F01D025F0010572
:1053600069282BD0642829D015F4007F40F096805E
:1053700015F4807F40F0AE8015F0400F00F0BF8044
:10538000189A111D1891127805950A990491CDF873
:105390000CA0029300230193009233462246594603
:1053A0003846FFF7F7FD044629E01023CBE7082332
:1053B000C9E70223C7E745F02005C6E715F4007FDB
:1053C00021D115F4807F42D115F0400F58D0189AA2
:1053D000111D1891127882EAE271A1EBE271059534
:1053E0000A980490CDF80CA00293D20F019200917C
:1053F0003346224659463846FFF7CCFD04460D9BFE
:1054000001330D937FE6189A073222F0070202F16A
:1054100008011891516812680846002913DB0895A5
:105420000A9D0795CDF818A0049300230593C90F92
:105430000291009201903346224659463846FFF7C2
:10544000F3FD0446DBE7524261EB4100E7E7189ABF
:10545000111D1891126882EAE271A1EBE2710595C3
:105460000A980490CDF80CA00293D20F01920091FB
:105470003346224659463846FFF78CFD0446BEE7C0
:1054800015F0800F05D0189A111D1891B2F900205F
:10549000A1E7189A111D189112689CE7189A073213
:1054A00022F0070202F10801189108950A99079164
:1054B000CDF818A00021049305910291D2E90023B0
:1054C000CDE900233346224659463846FFF7ACFD66
:1054D000044694E7189A111D189105950A990491AC
:1054E000CDF80CA002930023019313680093334678
:1054F000224659463846FFF74DFD04467FE715F032
:10550000800F04D0189A111D189112883CE7189A40
:10551000111D1891126837E715F002051FD04FF0E2
:1055200001081898031D189304F101093346224617
:1055300059460078B847BDB90D9B01330D934C46D1
:10554000E1E502F10109334659462020B8474346B8
:105550004A4603F101089A45F3D81446E1E70123CE
:10556000DDF828A02246F4E74A46DDF8289006E058
:10557000551C334659462020B847A0462A4608F114
:105580000104C145F4D89146D6E7189B1A1D18921C
:10559000D3F80090BAF1000F1ED14FF0FF33C84688
:1055A00002E008F10108134698F8002012B15A1ED3
:1055B000002BF6D1A8EB090815F480630B9302D0F9
:1055C000D04528BFD04615F002030C9306D02246E2
:1055D0005446B2460B9E1DE05346E0E722460A9C25
:1055E000434607E002F10108334659462020B847F8
:1055F0002B4642465D1C9C42F4D8A8465446B2460F
:105600000B9E07E01C4609F10109551C53465946FB
:10561000B8472A4699F8000020B1002EF3D0631E47
:10562000002CEFD1144656460C9B1BB90D9B013341
:105630000D9368E5DDF8289006E0551C3346594681
:105640002020B847A0462A4608F10104C145F4D8F5
:105650001446EBE745F02105189B1A1D18921B68AC
:10566000059508220492CDF80CA010220292002287
:10567000019200933346224659463846FFF78AFC8A
:1056800004460D9B01330D933DE5651C33462246D0
:1056900059462520B8470D9B01330D932C4632E522
:1056A000651C334622465946B8470D9B01330D937E
:1056B0002C4628E5074F25E5B44208D3721E334631
:1056C00059460020B84720460FB0BDE8F08F22466B
:1056D000F5E700BFB94D00000CB410B584B00A4620
:1056E00006AC54F8043B0394009401460348FFF7CA
:1056F000FFFC04B0BDE8104002B07047B14D00009F
:1057000002460023184604E05DF804FB520801330A
:10571000DBB28B4216D212F0010FF7D000B501F1C7
:10572000FF3CACEB030E4FF0010C0CFA0EFC40EA10
:105730000C0052080133DBB28B42E5D212F0010FAC
:10574000F7D0ECE770470000002011E05B009BB24F
:10575000013AD2B242B113F4004FF7D041F2210125
:1057600081EA43039BB2F3E7054A22F81030013087
:10577000FF2804DC83B21B029BB20822EAE77047D1
:10578000A0040020F8B506460D46002427460DE08B
:105790000821305DFFF7B4FFC3B283EA1723074A3D
:1057A00032F9133083EA07239FB20134AC42EFDBB6
:1057B00010213846FFF7A4FF80B2F8BDA0040020F6
:1057C000FEE70000114BDA6902F4803241F67131D4
:1057D000D9639B6823F440130D49884201D943F4EF
:1057E00080130A498B600B4BD3F8183223F0020365
:1057F0000949884201D943F002030649C1F8183229
:1058000012B1024B0022DA63704700BF0000034070
:10581000C017530200C0074080F0FA0208B5344BAD
:1058200098424DD010D9334B984251D031D9324B98
:10583000984251D003F5740303F5105398424FD1A9
:105840002E4BD3F898001DE02D4B984232D00BD947
:105850002C4B984231D003F5371303F5D8639842A7
:105860003ED1264B986F0DE0274B98420ED008D9B9
:10587000264B98420AD0264B984231D11F4B586E86
:1058800000E000B908BD234B984229D11B4B986D0D
:10589000F8E7214B984217D0204B984203D1174B81
:1058A000D3F88C00EEE71E4B984219D1134BD3F876
:1058B0008400E7E7114B186FE4E7104B586FE1E7FE
:1058C0000E4BD3F88000DDE70C4BD3F88800D9E706
:1058D0000A4BD3F89000D5E7084BD3F89400D1E7F2
:1058E00040F61A610F48FFF76BFF0020CAE700BFC0
:1058F00080BA8C01007E56030090D0030080E00F38
:10590000405DC6000024F40080841E0000093D00B4
:10591000C0CF6A0040420F0080D54302006CDC0219
:105920000048E80184BC000038B505460C460E4B23
:10593000D3F8803003F00303022B09D0032B0FD0E0
:1059400040F242410948FFF73BFF0023184602E0BE
:1059500000F082FE0B2305B1286004B1237038BD2E
:1059600000F09CFE0523F6E70080004084BC0000A8
:1059700038B505460C46144BD3F8203103F0070325
:10598000013B032B17D8DFE803F0020A0E1200F0E8
:105990003DFE042305B1286004B1237038BD00F03A
:1059A00071FE0323F6E700F079FE0523F2E700F02D
:1059B00071FE0223EEE740F628510448FFF700FF8E
:1059C00000231846E6E700BF0080004084BC0000CA
:1059D00030B583B005460C4600230193134BD3F832
:1059E000803103F00303022B16D0032B19D0012BB7
:1059F00006D040F644610E48FFF7E2FE002304E0C3
:105A0000002101A8FFF7B4FF0D230DB1019A2A6010
:105A100004B1237003B030BD00F040FE01900523B7
:105A2000F3E700F037FE01900223EEE7008000402C
:105A300084BC000038B505460C46114BD3F8403104
:105A400003F00303022B13D0032B15D0012B07D037
:105A500040F656510B48FFF7B3FE0023184602E00C
:105A600000F060FE082305B1286004B1237038BD42
:105A700000F05EFE0723F6E700F057FE0923F2E789
:105A80000080004084BC000038B505460C46114B30
:105A9000D3F8603103F00303022B13D0032B15D08E
:105AA000012B07D040F684510B48FFF789FE0023F5
:105AB000184602E000F036FE082305B1286004B164
:105AC000237038BD00F034FE0723F6E700F02DFE0A
:105AD0000923F2E70080004084BC000038B5054689
:105AE0000C46144BD3F8003203F00703013B032BA1
:105AF00018D8DFE803F0020A0E1200F013FE0823A4
:105B000005B1286004B1237038BD00F011FE0723F1
:105B1000F6E700F00AFE0923F2E700F09DFD800A97
:105B20000C23EDE740F6F7610348FFF749FE002339
:105B30001846E5E70080004084BC000038B5054603
:105B40000C46144BD3F8083203F00703013B032B38
:105B500018D8DFE803F0020A0E1200F0E3FD082374
:105B600005B1286004B1237038BD00F0E1FD0723C2
:105B7000F6E700F0DAFD0923F2E700F06DFD800A98
:105B80000C23EDE740F277410348FFF719FE0023AD
:105B90001846E5E70080004084BC000038B50546A3
:105BA0000C46114BD3F8403203F00303022B13D001
:105BB000032B15D0012B07D040F68B610B48FFF764
:105BC000FFFD0023184602E000F0ACFD082305B1FC
:105BD000286004B1237038BD00F0AAFD0723F6E762
:105BE00000F0A3FD0923F2E70080004084BC000020
:105BF00038B505460C46124BD3F8000100F00300FF
:105C000003280FD8DFE800F01602060A00F03AFD7C
:105C1000032310E000F08CFD07230CE000F038FDBA
:105C2000062308E040F6E5410648FFF7C9FD0023DA
:105C3000184600E0012305B1286004B1237038BD87
:105C40000080004084BC000008B500F017FD002172
:105C5000FFF7B8FD08BD000010B501380E2820D8A8
:105C6000DFE800F008141A1F1F1F1F1F1F1F1F1F30
:105C70001F1F08000C4B1C6FC4F30134022C11D100
:105C800040F2D9510948FFF79BFD0BE0064BD3F8D2
:105C90009040C4F3046405E0034B1C6FC4F38024FC
:105CA00000E00024601C10BD0080004084BC0000A7
:105CB00010B582B00023019325286AD8DFE800F0F0
:105CC00013191D27313C41464B50555A5F646919E1
:105CD0004669694B192731273C19462764414141E0
:105CE00041272727505500F09DFC0190019802B0F4
:105CF00010BD00F0B1FC0190F8E700F093FC044601
:105D00000220FFF7A9FFB4FBF0F40194EEE700F0E6
:105D1000A3FC04460320FFF79FFFB4FBF0F40194BB
:105D2000E4E700F099FC04460320FFF795FFB4FB7D
:105D3000F0F464080194D9E7002101A8FFF748FEB8
:105D4000D4E7002101A8FFF713FECFE7002101A847
:105D5000FFF770FECAE7002101A8FFF795FEC5E72F
:105D6000002101A8FFF7BAFEC0E7002101A8FFF754
:105D7000E5FEBBE7002101A8FFF73AFFB6E70021E7
:105D800001A8FFF7D1FDB1E7002101A8FFF706FF49
:105D9000ACE740F2AD310248FFF712FDA6E700BFC5
:105DA00084BC000000B583B000238DF8073025289F
:105DB0006FD8DFE800F0136E6E6E6E343E444A50CA
:105DC000565C62686E6E446E6E4A6E6E6E6E346EB7
:105DD000446E683E3E3E3E6E6E6E5056304B1B6FBC
:105DE00003F00703013B032B13D8DFE803F00E0297
:105DF000060A04238DF8073016E003238DF80730D8
:105E000012E006238DF807300EE002238DF80730EC
:105E10000AE040F272612348FFF7D2FC04E00DF182
:105E200007010020FFF7D4FD9DF8070003B05DF8DF
:105E300004FB0DF107010020FFF79AFDF4E70DF1D7
:105E400007010020FFF7F6FDEEE70DF10701002046
:105E5000FFF71AFEE8E70DF107010020FFF73EFE0D
:105E6000E2E70DF107010020FFF768FEDCE70DF126
:105E700007010020FFF7BCFED6E70DF10701002067
:105E8000FFF752FDD0E70DF107010020FFF786FE76
:105E9000CAE740F201710348FFF792FCC4E700BF74
:105EA0000080004084BC000008B5002903DD01210A
:105EB000FFF788FC08BD0021FFF784FCFAE700002B
:105EC00010B501380E284BD8DFE800F00826394A13
:105ED0004A4A4A4A4A4A4A4A4A4A08004C1E012C3F
:105EE00001D9042912D1FFF7AFFE00F043F81F4A91
:105EF000136F23F4405343EA0433136700F0ACFB01
:105F00000021FFF7D1FF00F03BF810BD40F2166111
:105F10001748FFF755FCE6E74C1E1F2C09D8134B1A
:105F2000D3F8901021F0F85141EA0461C3F89010C1
:105F3000EBE740F23C610E48FFF742FCEFE74C1EF6
:105F4000012C07D8094B196F21F4806141EA8421A3
:105F50001967DAE740F242610548FFF731FCF1E7E3
:105F60004FF4C9610248FFF72BFCCEE700800040E8
:105F700084BC000008B502210320FFF7A1FF08BD83
:105F800008B50120FFF794FE044B984204D9022182
:105F90000320FFF795FF08BD0121F9E780F0FA0221
:105FA000F8B50546FFF73AFC0446431E13F1030F0C
:105FB00029D8304B5B68012B2BD00020FFF7F2FE75
:105FC00004282FD024F040742B4B9D422FD02B4B14
:105FD0009D422FD02A4BDB6813F0060FFAD1284BD5
:105FE0009F689C6004F4F8149E6806F4F816B442A6
:105FF00023D1B44227D0224B9F600020FFF7D2FE6E
:10600000042824D0F8BD40F671211E48FFF7D8FBC4
:10601000CFE71D4B01225A60164B9B6913F0030F0B
:10602000FAD1CAE7FFF710FEFFF7A4FFCAE744F072
:106030000074CFE744F08074CCE740F6B8211148F3
:10604000FFF7BEFBD5E7284600F0E6FAD5E700F0FB
:1060500003FB0446854206D300212046FFF724FFB8
:10606000FFF78EFFCEE740F6C9210648FFF7A8FBF1
:10607000F2E700BF00C0014040420F0080841E00D4
:106080000000014084BC000000E00140EFF31080FC
:1060900072B6704700B962B67047EFF3108072B6FF
:1060A000704700B962B67047F8B50D4616461F46F0
:1060B000044648B1012818D0022818D0032801D07E
:1060C000002302E01F2300E07F23EB4013F0010FC9
:1060D0000FD03EB3002F52D09CB1012C45D0022CE2
:1060E00045D0032C0BD000230CE00323EDE73F2326
:1060F000EBE740F21D116348FFF762FBE9E71F235E
:1061000000E07F23EB4013F0010F32D00122AA40C0
:1061100004EB44031B0103F1804303F5703341F2A8
:1061200010015A50072D51D8574A04EB440302EB93
:1061300003135B68A9000F20884023EA000306FAD6
:1061400001F10B4304EB440102EB01125360002EFA
:1061500066D1002F6FD0002C50D0012C61D0022CC2
:1061600061D0032C48D0002349E00323CAE73F2332
:10617000C8E74FF482614548FFF722FBC6E74CB100
:10618000012C19D0022C19D0032C01D03B4602E07F
:106190001F2300E07F23EB4013F0010F10D00122FA
:1061A000AA4004EB44031B0103F1804303F5703361
:1061B00042F210015A50B5E70323ECE73F23EAE728
:1061C00040F2E1313148FFF7FBFAE8E72E4904EBF2
:1061D000440301EB0313DA68A5F108039B000F20C9
:1061E000984022EA000206FA03F3134304EB440248
:1061F00001EB0211CB60AAE71F2300E07F23EB40F5
:1062000013F0010F11D0012101FA05F504EB44044C
:10621000240104F1804404F5703441F21003E55088
:10622000F8BD0323EBE73F23E9E74FF4826117480A
:10623000FFF7C6FAE7E73CB1012C18D0022C18D0C2
:10624000032C02D11F2700E07F27EF4017F0010F3A
:1062500011D0012101FA05F504EB4404240104F1F5
:10626000804404F5703442F21003E550D8E7032768
:10627000EBE73F27E9E740F2E1310448FFF7A0FAF6
:10628000E7E700BFCCBC000000C0034018BD000021
:10629000054B5B69C3F38512827003F03F024270C5
:1062A0001B0B0370704700BF00C007400E4B9842A5
:1062B0000AD00E4B98420CD00D4B98420ED0C36DB5
:1062C00043F08003C3657047A3F50033C3F884111E
:1062D000F5E7A3F51033C3F89411F0E7A3F52033E5
:1062E000C3F8A411EBE700BF0080054000C00540E3
:1062F00000000640F8B505460E461C4617465AB142
:1063000086B1402C44D012D8C4B1202C56D1B7EB62
:10631000D60F36D8082315E04FF4A1712D48FFF7AA
:106320004FFAEDE70320FFF7C3FC0646E9E7602CD0
:1063300044D1B7EB960F3AD8042303E0B7EB161F0E
:1063400018D8102307FB03F14B0803EB4613B3FBEC
:10635000F1F3203BDE00204AB2EBC30F34D31E4AD8
:106360003240AB6823F06003AB60AB681C43AC60A9
:10637000EA61F8BD4FF4BA711648FFF721FA10230D
:10638000E0E740F279111348FFF71AFA0823D9E73A
:10639000124BA3FB0623B7EB930F01D80623D1E7DB
:1063A0004FF4BF710B48FFF70BFA0623CAE740F220
:1063B00083110848FFF704FA0423C3E740F2891168
:1063C0000448FFF7FDF9D4E740F29F110148FFF7B9
:1063D000F7F9C4E764BD0000F8FF7F00ABAAAAAAE2
:1063E00010B50446214B98420CD003F580439842E7
:1063F00008D003F58043984204D040F229411C485C
:10640000FFF7DEF904F5805301225A6040F6AA63D3
:1064100063610023A360E36541F20502E26023614A
:10642000E361E36404F5005212499164A3650F4BE4
:106430009C4207D003F580439C4203D003F5804380
:106440009C4201D100232365084B9C4207D003F5F1
:1064500080439C4203D003F580439C4201D100233A
:10646000636504F500540123636010BD008005409E
:1064700064BD0000FFFF010038B505460C46484BDF
:1064800098420CD003F58043984208D003F580432E
:10649000984204D040F2ED214248FFF791F9284696
:1064A000FFF79EFF05F5805301225A60A37C1BB1C4
:1064B000AB6843F08043AB60E37C002B40D1637B4F
:1064C000228A1343E2891343EB60237BA26861684D
:1064D0002846FFF70FFF637D1BB1AB6843F48033A1
:1064E000AB60A37D1B0703F0E043E27D120502F4DD
:1064F000E0021343AB65237E023BDBB2012B24D9C0
:10650000274B9D4240D003F580439D423ED003F58A
:1065100080439D4236D04FF0FF335B0103F180434F
:1065200003F5703342F2AC5202219950237E012BC5
:106530002ED0032B2CD005F500530422DA652BE076
:10654000217D2846FFF7B2FEB9E7154B9D4215D0D5
:1065500003F580439D4213D003F580439D420BD049
:106560004FF0FF335B0103F1804303F5703341F2D9
:10657000AC5202219950D9E70223F3E70023F1E757
:106580000123EFE70223C8E70023C6E70123C4E79E
:1065900005F580530422DA6523786B6138BD00BFAE
:1065A0000080054064BD0000FEE7000008B500F073
:1065B0001FF80A4B0A4A03E052F8041B43F8041B75
:1065C00008498B42F8D3084B02E0002243F8042B21
:1065D000064A9342F9D3FDF7ADFD00BF000000204D
:1065E00064DD000074020020780200205C0E0020B0
:1065F000044B054A9A60D3F8882042F47002C3F82D
:106600008820704700ED00E000400000014B186852
:10661000704700BF04000020014B1860704700BFA6
:106620000400002008B5094B1B6F03F00703022B81
:1066300004D0032B05D0012B06D0FEE7FFF7E6FFC1
:1066400003E0034B186800E0024808BD00800040EA
:1066500008000020002D310108B5FFF7E3FF054BCE
:106660001B6FC3F301330133B0FBF3F0024B18602F
:1066700008BD00BF008000400000002000487047B7
:1066800000B4C404014B1868704700BF0800002024
:106690000020704700487047002D3101174B986863
:1066A000C0F304400C2808D8DFE800F0090707070A
:1066B0000707211719071B1D1F00002070470F4BEC
:1066C0009B6803F04073B3F1807F12D0B3F1007F79
:1066D00011D003B170470A4870470A4870470A480A
:1066E00070470A4870470A4870470A4870470A4886
:1066F00070470A4870470A48ECE700BF0040014A6B
:1067000000093D000024F400C0EA210180BA8C0198
:106710000048E801005A6202405DC60080841E0005
:1067200040420F004FF4004070474FF47A707047BA
:10673000014B1868704700BF0C00002008B50248E4
:10674000FFF72EFC08BD00BF00B4C40410B514460A
:1067500012F0080F06D114F0C00F0CD1094B1C42E7
:106760000CD110BD00F0A6FC074B1B68002BF2D12A
:10677000054B1860EFE700F087F9EFE700F08AF9C2
:10678000EFE700BF088D0100A40A002010B500212A
:10679000054800F085F9054C206000F033FD044900
:1067A000206800F0F1FC10BD14000020A00A0020B9
:1067B000B0BD00000000000030B585B01C4C0122C7
:1067C0001146206800F025FC0121206800F020FD22
:1067D0000F21206800F02FFD13A3D3E90023CDE99A
:1067E00000234FF0FF324FF0FF33206800F004FC2D
:1067F00000250295039501238DF80A308DF80930A4
:1068000002A9206800F002FC4FF480632A4609497F
:10681000206800F024FC2A46074B1978206800F015
:106820005DF905B030BD00BFC88D0101000000005A
:10683000A00A0020A006002010000020002845D05B
:1068400070B58CB0044600230370224B1968F1B177
:10685000214D07AA286800F025FC03AA1D4B1968E2
:10686000286800F023FCBDF81E20531E9BB27F2B2E
:1068700010D90026174C184D2168286800F01CFC20
:1068800007AA0221286800F00DFC206006BB012049
:106890000CB070BD531E224602F8013BBDF81E30FD
:1068A000013B012600969BB20A490968286800F05E
:1068B00006FC9DF9163084F882309DF8173084F874
:1068C0008130064B1B7884F88330D3E70220704771
:1068D0000020DDE7A40A0020A00A0020100000200C
:1068E00010B5044600220146034B186800F0F6F884
:1068F00008B9024B1C7010BDA00A00201000002037
:1069000010B588B00DF1040C294C0FCCACE80F0089
:1069100094E807008CE80700264C01A92046FFF701
:10692000ABFD0123042219461846FFF7BDFB0123E6
:10693000022200211846FFF7B7FB012363611D4BBC
:106940009B6913F0010FFAD01B4B0122C3F8BC2541
:1069500003F580530422C3F8AC2503F5D8335A61FC
:10696000144B9B6913F0020FFAD0134B4FF0011236
:10697000C3F8C42503F580531022C3F8AC250F4B90
:106980004FF40062C3F88020BFF34F8FBFF36F8FC7
:10699000C3F88021802183F80B131A60054B03F59F
:1069A000005104228A6403F58053DA6408B010BDF4
:1069B000DCBD00000080054000C0034000E100E0B5
:1069C000034B9B6913F0400FFAD0014BD86370471B
:1069D0000080054008B5034B586AC0B2FEF700F9C5
:1069E00008BD00BF0080054008B501230422002136
:1069F0000220FFF759FB08BD00B583B001A8FFF7DF
:106A000047FC1F4B9B6D13F4803F14D11C4A536B02
:106A100023F4FF0323F4FE4343F4BC1343F4A063C5
:106A20005363136B23F4704343F440431363136BBA
:106A300043F4E06313639DF80530012B11D0114A34
:106A4000D2F8803043F00303C2F88030FFF776FEBF
:106A5000FFF756FFFFF79AFEFFF7C6FF03B05DF89A
:106A600004FB9DF80430002BE9D100234FF00052C5
:106A700003E0116802F580420133052BF9D9DEE706
:106A800000C0004000800040014B01221A6770479F
:106A900000E00340014B01221A67704700D0034019
:106AA00037B50446019178B10A4D2B787BB90A4B72
:106AB000186000F04BF82046019900F038F8031EEA
:106AC00018BF012304462B70204603B030BD0024BC
:106AD000FAE700BFAC0A0020A80A002010B500B1F8
:106AE0000C3000F09AFA044620B90121024B084606
:106AF0005B689847204610BDD00100207047000019
:106B0000431E033306D8044B984228BF1846642816
:106B100038BF6420704700BF40420F00431E012B66
:106B200003D9031F5842584170470120704738B5B8
:106B300004460D46002100F07DFA2946204601F06A
:106B400073FB00280CBF2046002038BD10B504465A
:106B500000F0C6FD44B1054AD4F88830002B08BFC8
:106B60001346034A136010BDE36FFFDEFD6A0000A9
:106B7000C801002010B50C4600F01EFE1CB100F04C
:106B800071FE0128FBD1BDE81040024B002103201B
:106B90005B681847D001002000B10C3000F01CBF2A
:106BA00000B10C3000F02EBF08B502460868FFF7B0
:106BB000A7FF08604868FFF7A3FF48608868FFF7F1
:106BC0009FFF8860C868FFF79BFF0B69C860581C6F
:106BD00003D00C48834228BF03460B614B69581C05
:106BE00003D00848834228BF034688694B61FFF7FA
:106BF00087FF886102B10C321046BDE8084001F001
:106C0000AFBB00BF40420F002DE9F04F436F8046FD
:106C10000D4683B013B103898B4276D0D8F87070DB
:106C2000002F44D0BB68002B41D0F96800293ED02A
:106C3000D8F884200192002A3DD04FF00009A8F135
:106C40000C0B4C464E4600E0BB68C4EBC40203EBA1
:106C5000820ABAF80E200134AA4215D8BAF81020D8
:106C6000AA4211D3BAF91220B8F93211914254DD77
:106C7000584698F8C01004F0E5FC98F805208146C5
:106C80008242564603D9F9688C42DDD356B30023BD
:106C9000324640461946019CA0470020A8F80850FB
:106CA000C8F8746088F8C99003B0BDE8F08F03207D
:106CB00003B0BDE8F08F914647F6FF7A1446A8F17D
:106CC0000C0BC4EBC40603EB8606F389AB4217D862
:106CD000338AAB4214D3B6F91220524504D14FF097
:106CE000FF09DAE70120DFE7584698F8C01004F002
:106CF000A9FC98F8053081468342CED93246F9681E
:106D00000134A14205D9BB68DBE7002003B0BDE830
:106D1000F08F002AE6D01646BFE75646B7E700BF19
:106D20002DE9F04FDFF8B0B185B0044616461F4696
:106D3000009101F08DFBBBF8005001F0A7FB00288B
:106D40007CD1DFF89881636FD8F8002093426AD035
:106D500000F088FD01284FD1DFF884A1DAF8003077
:106D6000002B5BD0226F934270D0D4F874C01868A7
:106D7000116810B1884200F08380DCF800202046C2
:106D800001F0CDF90023012605460193D4F8849043
:106D90008DF80F70B9F1000F67D000222046114620
:106DA0000DF10F03C84785B9236FCAF80030636F30
:106DB000C8F80030019B0BB9002E3AD0009B20464A
:106DC000CBF8003000F0F8FE05468EB1B5FA85F03C
:106DD00040F2A3223321400900F082F939462046CF
:106DE00001F0AAF93A4B616F1B68A4F10C009847B7
:106DF000284605B0BDE8F08F012000F0DDFC00F072
:106E000031FD0128FBD1334BDFF8D4A05B680021B2
:106E100003209847DAF80030002BA3D1236FD4F871
:106E200074C01968A9E7002B92D0009B9D428FD1B6
:106E300087BB0025284605B0BDE8F08F0023DFF8AA
:106E40009C80C8F8003001F019FB7CE7D8F80010EE
:106E5000D4F874C000298AD0614588D1009BEB1A10
:106E600018BF01230025019390E7617994F8C93098
:106E70003A46994228BF1946204600F077FE92E72D
:106E8000D8F80010DCF8002011B10968914210D048
:106E9000596874E7002ECCD00122D4F884508DF8C4
:106EA0000F205DB10022204611460DF10F03A847C7
:106EB000BFE7002301261D46019367E7617994F837
:106EC000C9302046994228BF194600F04FFEB0E76E
:106ED000C8010020D0010020B00A0020B80A00201C
:106EE000B40A0020F8B50E460546FFF7CFF8314644
:106EF00007462846FFF788FE044620B13846FFF7CC
:106F0000C9F82046F8BD0346024631462846FFF739
:106F100007FF04463846FFF7BDF82046F8BD00BF1E
:106F2000F8B506460C4659B30B6843B11B680133EC
:106F300026D0CB681BB18B68003B18BF01231846D5
:106F40006122412100F0CCF8204601F07DFF0023B2
:106F50004FF6FF724FF01C0C86F8CC30C6E91C438C
:106F6000E768D8B287420DD8154600230B4A294658
:106F700013600B4A30461360FFF7B4FF2846F8BD94
:106F80000023DCE7A1680CFB0011CD89954202D2F9
:106F9000002DEAD02A460133E3E700BFB40A0020FF
:106FA000B80A00200A7838B505461046FFF7B6FD46
:106FB00060B14C782046FFF7B1FD38B1224353074A
:106FC00004D42846BDE8384000F052BD012038BD49
:106FD00010B504460878FFF7A1FD58B14A7810466D
:106FE000FFF79CFD30B1042A04D02046BDE81040D4
:106FF00000F074BD012010BD30B4DDE9024500B1E0
:107000000C30CDE9024530BC00F028BB084601F049
:107010008DBB00B10C3000F0D5BC38B504460D4630
:10702000FFF760FF28B929462046BDE8384000F048
:107030002FBC38BD01F032BA38B505460C46FFF713
:1070400025F8A9696B690C4023436B61FFF722F8AF
:1070500000200CB9002138BD4FF40071FBE700B1EE
:107060000C3001F023B800B10C3001F03BB8000047
:107070004FF4007307B50A490DF10602ADF806306A
:10708000FFF7F1FFBDF80630B3F5007F05D1022808
:1070900008BF002003B05DF804FB0120FAE700BF41
:1070A000BC0A00200846114600F00EBF00B10C30AB
:1070B00000F0DABF00F0ECBF084600F0EBBF084676
:1070C00011461A46BDF8003000F016BB024B19609D
:1070D000024B1860FEE700BFCC010020C00C00206E
:1070E00008B550B90548064B01601A60054B1A688F
:1070F000054B1A601868FFF7E9FF08BDCC010020B6
:10710000BC0C0020A80A0020C00C002000B10C30EC
:1071100008470000F0B58DB003AC05460B46274686
:10712000184A02F1200C264610685168083203C63E
:1071300062453446F7D1002B08BF3B460027106854
:107140001C463060384603F10C06FAB280B9284676
:107150002188019201F0C6F950B92846019AE188C8
:1071600001F0D4F920B931462846019A01F0E3F93B
:107170000137032F06F1080604F10204E5D10DB032
:10718000F0BD00BF38BE00002DE9F0410D4680463D
:107190008AB090B300F10C0795F8283095F82920B3
:1071A00095F82A100093384695F82B3003AC05F17A
:1071B0000C0601F001FA0FCE0FC496E8070084E830
:1071C000070003A94046FFF7EFFC3846291D04F0ED
:1071D000A3FA044648B93846094901F07FF8044645
:1071E00018B9384601F0B6F9044638462968FFF761
:1071F00091FF20460AB0BDE8F0810746CCE700BF0A
:107200005CBE00000149FFF781BF00BFD9840000C8
:1072100013B5044600B10C342046019101F058F931
:1072200030B12046019902B0BDE8104001F0ACB980
:10723000022002B010BD13B5044600B10C34204644
:10724000019101F045F930B12046019902B0BDE845
:10725000104001F0A1B9022002B010BD002070471B
:1072600000207047024BD868C0F30360704700BF2E
:10727000000002A870470000431C07D06FF0FF0217
:10728000034B10401A62A3F580531862704700BF89
:1072900000E000A8C2690E4B02F06002402A11D043
:1072A000602A03D0202A10D1012206E069B10A68C1
:1072B000012A0AD94A6942F00102DA638022054BA9
:1072C0001A61704740F20112F7E70022F5E700BFAC
:1072D000001F00B0000002A808B5094AFFF7C2FF6E
:1072E0000B2806D00C2809D0092814BF0020022042
:1072F00008BD106F10F48030F0D1F9E70220F7E7F5
:10730000000002A80121094BD3F8EC2019635207B1
:107310004FF4005148BF042203F50053D96244BF23
:10732000A3F58053C3F8EC20704700BF0040004431
:1073300010B50446D0F8B4200A4B4FF40061C3F8EE
:10734000A0200278120202F4006204F009F9237806
:1073500013F0080F4FF4007314BF034A034A136776
:1073600010BD00BF001E00B0001002A8002002A83F
:1073700037B50C46174D41B90A46072104F0F0F81D
:10738000154BAC615C6003B030BD0722114604F0C0
:10739000E7F80722114B0121DA60237901A82B7647
:1073A0006379019304F03BF9019BC2B2D34000F032
:1073B0000F0040EA03106876A379094AAB76E379B7
:1073C000EB762368EB6123790133136204F026F92D
:1073D000D9E700BF001F00B0181F00B0006000A870
:1073E000004000A810B54B780C46002B3CD1394A20
:1073F000C2F88C304FF06052374B1A62374B1B7813
:1074000013B10622364B9A674FF08052354BDA673C
:10741000A3F500531B6F5B0208D4C36913F0800F00
:107420004FF4001314BF304A2B4A13624FF480729A
:107430002E4BC3F8EC20C3F8E020A378002B40D1FA
:1074400040F6FF722A4BDA62E378002B3CD140F61B
:10745000FF72274BDA656022264BDA6403F5E833C6
:10746000402200201A6710BD013BDBB2032BE4D899
:107470004FF06051204A52F82330174A43F400136A
:107480001162A2F5805213620423A2F58832C2F879
:107490008C30936F23F0060343F0040393674FF09F
:1074A0008052164BDA6703F0CFFA0028C5D04FF4AC
:1074B00080730E4AC2F8E030A2F58052C2F8EC3078
:1074C000BBE7FFF71FFFBFE76022054BDA6403F558
:1074D000D833C5E7004000A8006001A8C80C002010
:1074E000006000A8002002A8005001A8006000442D
:1074F00000400044005000A864BE0000001002A834
:10750000044AC002D36900F4FF2023F4FF23184388
:10751000D061704700C000A8434B2DE9F3411E68BD
:1075200005460C46174606B10C3640F2022305F01C
:1075300001022340134344D0A30709D53B4BD3F8A2
:10754000CC3E03F0C003402B02BF0221384B9960B0
:107550004FF000085AB30023002200210120CDE99A
:10756000008803F08FF8042002F030F84FF0FF306D
:1075700002F05EFB414670810120FFF7FBFA2D4BC4
:107580001B6F580208D4F36913F0800F4FF40013F7
:1075900014BF294A294A136229490868FFF76CFE7B
:1075A0004FF0FF330B60337843F004033370A105D1
:1075B00007D501213046FFF73FFD24F40074054351
:1075C0000C43D6E93A231540234055EA03020AD07A
:1075D0001C4AA6F10C0011682A4688472A0742BFB8
:1075E0000022194B1A60FB070FD51849184A086882
:1075F0000021136811600121164A117003B19847E8
:10760000154B002102205B68984717F00E0F08D039
:107610004FF4B0723B21002002B0BDE8F041FFF70B
:107620005FBD02B0BDE8F081A80A0020001000B0E4
:10763000001002A8000002A8005001A8006001A8E4
:10764000DC010020D8010020CC0C0020E40C00203C
:10765000E00C0020DC0C0020D0010020F7B5D0E9C0
:107660003AC71946DDE9086304468CEA060587EA4D
:1076700003001540084085EA0C057840C4E93A50FB
:1076800000250B4022F0010043F4007306EA0002DB
:1076900043F00203CDE9005502F0F4FF2378DA0746
:1076A00018D5D4F8EC309B0514D54FF48031204622
:1076B000FFF7C2FC237865F300032370D4E93A2373
:1076C00002400B4052EA030104D00449A4F10C002B
:1076D00009688847002003B0F0BD00BFD801002032
:1076E000034A0368002B08BF1346024A1360704721
:1076F00075720000D80100202DE9F04106461446BD
:107700001D460F4686B0002946D0FAB160B3DFF8B7
:107710009880FEF7BBFCD8F80030B3421AD11F4B5B
:107720001B88ADF802301E4B1E88FEF7B3FC2B19E8
:10773000B342BDF80230C4BF741BA4B22B4422462E
:10774000394618489BB201F019F90446204606B0A4
:10775000BDE8F081FEF79EFC30460DF1020201A962
:1077600001F0AEFA064608B93446EFE79DF804305A
:1077700013F0F70F0DD0FEF789FC084BBDF802207F
:10778000C8F800601A80064BBDF806201A80FEF784
:1077900081FCBDF80660CAE70C46D7E7D00C002094
:1077A000CA0C002038400044CC0C0020014B0020C3
:1077B00019637047001F00B003282DE9F3413ED83C
:1077C000204B1E5C204B1F5C204B13F80080FEF703
:1077D0005DFC054603F030F9044640B10023002269
:1077E000CDE9003301200023002102F04BFF394690
:1077F000304603F0B3F942463946304603F004FA06
:10780000BCB1134B1B6803B10C33124A126F520206
:1078100008D4DB6913F0800F4FF4001314BF0E4A35
:107820000E4A13620E490868FFF726FD4FF0FF333A
:107830000B60284602B0BDE8F041FEF72BBC02B059
:10784000BDE8F08174BE000078BE00007CBE000080
:10785000A80A0020000002A8005001A8006001A8AA
:10786000DC01002008B5FFF7FDFC0138C0B20B2891
:1078700002D8054B185C08BD044B5B6913F0060F7A
:107880000CBF01200420F6E780BE000000C001A864
:1078900008B5FFF74DFDFEF7F9FB074AD2F89C3E0D
:1078A00023F02003C2F89C3EFEF7F4FB0222034BB8
:1078B00000209A6008BD00BF001000B0001002A8B0
:1078C000094B08465A6A91020BD4D3F80021D2071B
:1078D00008D4D3F8803013F4706F14BF0120002057
:1078E00070470120704700BF004001A870B51546E1
:1078F0000C4601F00B0323EA02012C4A2B40D16411
:10790000A2F58052D3646307064610D50121FFF724
:10791000D7FF60B103F00AF94FF4007315F0040FBC
:1079200014BF234A234A53620422234B1A67E006FA
:1079300006D515F0100F14BF00221B221F4B5A65ED
:10794000210618D52A061FD54FF40012184B1A62CB
:10795000012203F58053C3F80021FEF797FB0E21A7
:107960000546032002F004F940F20122134B284699
:10797000DA62FEF78FFB14F0600F03D03046B16F70
:10798000FFF788FC002070BD0D4B1B6F5B02F2D42B
:107990004FF4001196F8B230064A1162002BEAD07B
:1079A0000122034BC3F80021E5E700BF006000A8F7
:1079B000005001A8006001A8002002A8004000A813
:1079C000000002A830B4C56985EA02030B406B4091
:1079D000C36130BCFFF78ABF014B186A02F0DAB806
:1079E000004001A8836F4BB11A68022A06D993F8A8
:1079F000250030B11B6AB3FBF0F070470C38FFF77D
:107A0000CBB87047014B186A02F0ECB8004001A8EF
:107A1000826F72B11368022B0BD9536A13F47F4F34
:107A2000C3F3072008D0126ADBB25343B3FBF0F074
:107A300070470C38FFF7B4B87047000043785A1FFE
:107A4000012A01D9082B05D14B7B2BB1012B05D085
:107A5000022B05D0FFF7DCBF024870470248704791
:107A60000248704720A1070048E8010040420F008B
:107A700070B50E46FEF70AFB0546FFF72DFC0446DF
:107A800020B12846FEF706FB204670BD03F04EF8F5
:107A9000104B3278D3F8CC3E022A23F0F00315D0F5
:107AA000042A0CBF0222002243EA02137278022A3F
:107AB0000ED0042A0CBF0222002243EA8213054A98
:107AC000C2F8CC3E0422044B1A67DAE70122EBE746
:107AD0000122F2E7001000B0002002A838B50D46E0
:107AE000FEF7D4FA04461E4AFFF7BCFB062826D848
:107AF00004282BD8032829D003F018F8194B2A782A
:107B0000D3F8CC3E022A23F00F0324D0042A0CBF62
:107B10000222002213436A78022A1ED0042A0CBFD4
:107B20000222002243EA82030E4A2046C2F8CC3EDB
:107B300004220D4B1A67FEF7ADFA00200AE0072871
:107B4000DAD1D2F83031002BCED1D5E72046FEF77E
:107B5000A1FA022038BD0122DCE70122E2E700BFE2
:107B6000000002A8001000B0002002A870B5054671
:107B700090F8C0000C460428164618D0FF2918D0EB
:107B800001F0D2F9A04204D895F8C00001F0CCF978
:107B900004462046AC7101F06FFAA0F1FF035C428D
:107BA0005C4116B9284601F0D3F9204670BD022485
:107BB000FBE70124F9E7000070B5436A8AB0012BA6
:107BC00003D1002528460AB070BD0446784901F06B
:107BD000DBFD666F2589A0672EB133681BB15B683A
:107BE000002B40F09780FEF751FAFEF753FA01237D
:107BF000A06F8DF80A30B389D6E90121EB1A9BB248
:107C000001FB03226B49ADF808300B6801928342F7
:107C100016D048B103683BB103692BB1D3E9001218
:107C20009B68C4E9221204E09FED5F7B002384ED92
:107C3000227B0146C4F890302046FFF72BFBA06F53
:107C4000002842D00368032B3FD920469DF80A2024
:107C5000019905AB02F084F8002857D1564A5749DC
:107C6000FFF700FB431EDBB20B2B44D8D35C012B88
:107C7000F6D105A901A802F0E5F90546002845D18D
:107C8000237860F30003237000F08EFD636F5A6960
:107C9000431E1668DBB2FD2B039642D853680128B9
:107CA000049361D10646D91C49D8024603A920464F
:107CB00000F0DEFC002E85D1D4F8EC309B0559D4C1
:107CC000237843F0010323707CE73B4A3B49FFF7ED
:107CD000C9FA431EDBB20B2B08D8D35C012BB4D0FE
:107CE000FFF7C0FA431EDBB20B2BF6D94B6913F03A
:107CF000060FAAD0EBE74B6913F0060FB0D105A928
:107D000001A802F09FF905460028B9D002252846AF
:107D10000AB070BD1A68032A7FF665AF9B6A5B0ED6
:107D200067E7F31C14D9264B01361B6818BF0126E0
:107D3000D91C17D9FF28536831D00493BAE701330F
:107D40001F4B08BF00265B68DA1C08D80493ACE719
:107D500001265368FF280493A5D00020A5E7FF283B
:107D6000A8D1FAE70393F4E7024603A9204600F0FE
:107D70007FFC27E74FF480312046FFF75DF9D4F808
:107D8000E820D4F8EC3002400B4052EA03013FF403
:107D900019AF0C49A4F10C000968884712E70120CB
:107DA000049380E7AFF300800000000000000000B3
:107DB000FC1F00B0D40C002080BE000000C001A851
:107DC00000020020D801002010B5044651B14FF444
:107DD000006103F0D9FB10B194F8BA3063B94FF4E5
:107DE000807200E00A464FF48071204603F0B8FB31
:107DF000003818BF012010BD0020FCE710B50C466C
:107E000019B100F065FB00B10B34204601F050FCC5
:107E1000024B4042C3F8BC0E002010BD001000B061
:107E200037B50C460192FEF731F90546FFF71AFA0D
:107E3000C21FD2B2022A019901D90C2803D1084BE2
:107E40001B6F9B030AD42046012200F0A1FD0446CB
:107E50002846FEF71FF9204603B030BD0324F7E79C
:107E6000000002A8002914BF4FF4007200224FF452
:107E7000007103F075BB002914BF4FF4806200222B
:107E80004FF4806103F06CBB8A780346012A10B47A
:107E900015D8C878012812D80A78012A0FD84C784A
:107EA000042C0CD80CB1012809D1012A07D008688C
:107EB0005DF8044BC3F8D8001846FFF793BA0120C9
:107EC0005DF8044B7047000037B50DF106020D4612
:107ED00000F0F6FE044688B185B12B7813F0F70F59
:107EE0000CD0FEF7D3F8074BBDF806201C60064BFC
:107EF0001A806A88054B1A80FEF7CCF8204603B03A
:107F000030BD00BFCC0C0020D00C0020CA0C0020DB
:107F10002DE9F74306461546084619B9012003B076
:107F2000BDE8F083002AF9D0032905D800221146C4
:107F300000F0C6FE0028F1D081780388027990F81D
:107F40000580C488B0F9000001F007070028C0F2DE
:107F50008580A7F1070CDCF1000040EB0C00052F39
:107F6000287294BF0020C1F300106872C1F3801022
:107F7000287301F0880080283AD088283AD0082851
:107F80003AD10120C1F340116873A9730AB996F878
:107F9000BA20013AD2B2EA73F269D20658D4063F47
:107FA000012F55D82E4A063B526D9BB206226946D8
:107FB0002C4800F0E3FC9DF80070E304A7F13207C1
:107FC0007FB21BD49DF801004400E0B2D6F88030A7
:107FD0000BB139469847E8726A7B3046DDF80210EB
:107FE000AF7202F029FA06232860AB71002096E7F1
:107FF0000220C7E70320C5E70020C3E7B36FC4F33F
:108000000B04E4008BB11A68022A0ED993F82430CD
:108010000BB1B4FBF3F4A04516D8BCB1C8EB0820F3
:10802000B0FBF4F0C043C0B2D0E73046FFF7DAFC53
:10803000294681463046FFF701FD0028EBD009FBB9
:1080400004F4B4FBF0F4E6E70020BFE72046BDE708
:108050000020802328606B81A87160E702205EE722
:10806000004000A838400044F8B506461446977909
:10807000FFF74EFF054648B9A3793BB1214630468C
:10808000A771FFF7DBFC214602F0A4F92846F8BDF2
:1080900000F010BD044B1A68824201D0032801D8B9
:1080A00000221A6002F08ABDCC0C0020B3FA83F3E0
:1080B000192B084610B5114612D0C3F11903DBB2D3
:1080C000062B28BF06231A46941DE3B201249C40C8
:1080D000A4B2A14228BF214600F0CEFB204610BD2D
:1080E0000022F1E7138808463F2B10B515D9B3FAE3
:1080F00083F3192B0FD0C3F11903DBB2062B28BF72
:10810000062319468B1DDCB20123A340138000F027
:10811000D1FB002010BD0021F4E70120FAE710B5E3
:1081200014460846012101F0A7FC2046012101F078
:10813000A3FC002010BD0000F8B504460D4611B99F
:1081400003785A063AD44FF6FF73A189A66F994275
:1081500004D02A4B1B680BB120469847284F3B6838
:10816000B34244D0274B1B683BB11EB13268002A92
:108170003FD0B668314620469847A36F93B31A683C
:10818000022A2FD95A6A12F47F4FC2F3072005D072
:108190001B6AD2B203FB02F2B2FBF0F001F0B4FFB3
:1081A0000726204600F0C4FFB5B106200122A36FC8
:1081B00015493B60154B88671A70F8BD4FF6FF7183
:1081C0000F4F866F3A6865F38613B2428181037060
:1081D000C8D100F0ADFF0126314604F1880002F05D
:1081E00023F8E2E7A4F10C00FEF7DAFCD6E701265B
:1081F000D7E71646204631469847BEE7D80C002000
:10820000D40C0020C40C0020006000A8C80C002082
:1082100008B548220021034803F061FCBDE808408E
:1082200003F0FCB9D01E00B02DE9F3410F4604461F
:1082300000284BD0042380F8CC30264B4FF0FF3879
:108240001B7800F10C0683736423C0F85081C0E9E9
:108250002B33C0E92D33C0F8A830A0F8BC3080F82B
:108260001180A0F81280C0F81880304602F0F6FBAA
:108270003046FFF7CDFF94F90E00FFF741F9602279
:10828000154B04F1E401DA643046FFF7FDFD414689
:108290000546A26A3046FFF795FB0E230022CDE982
:1082A000003340F202231046194602F0EBF900F0C9
:1082B00007FE3DB92046FEF7DBFE054617B108B9BB
:1082C0002046B847284602B0BDE8F08180F8C000DB
:1082D000FFDE00BFE2010020004000A810B50C4600
:1082E000FFF796FFCCB1A378082B18D8E278082ABC
:1082F00015D843EA021313F0FF030CBF1946616857
:10830000084AC2F8D010217882F81411617882F8F6
:10831000173182F8151103F081F9002010BD0120FA
:10832000FCE700BF001E00B0012A10B513D8032BD4
:1083300011D803EB82030122084C02FA03F394F8EC
:108340001601DBB221B10343002084F8163110BDC1
:1083500020EA0303F8E70120F9E700BF001E00B0A0
:10836000034670B50C68B0F8C420013408BFD3F8D8
:108370009C408D6808BF0C604C685A32013408BFBD
:10838000D3F8A84092B208BF4C606C1C00F1880082
:1083900033D1D3F8A450CC688D60661C31D1D3F8AA
:1083A000A0400E69CC60013604BFD3F894600E6122
:1083B0004E69013604BFD3F898604E618E6901366C
:1083C00004BFD3F8AC608E618E69F6B1B24238BF9B
:1083D00032460E688A61C3E927644C68C3F8A4502A
:1083E000C3E92A420A69C3F894204A690721C3F8FD
:1083F000982001F019FF002070BD954238BF154646
:10840000C9E7944238BF1446CBE76422E1E7000095
:1084100038B5FDF73BFE4FF6FF710A4A13888B42D1
:1084200003D1FDF737FE032038BD074C074D1B0471
:108430006566A4F5805463661180FDF72BFE00206D
:10844000F2E700BFE0010020006001A80000FFFF8C
:1084500008B5084BD3F84C315A1C0AD05B0008D43D
:108460000320FFF7A9F94FF08062034BDA6701227E
:108470005A6108BD0080E00F001002A84FF40022EE
:10848000014B1A67704700BF002002A8024B186F0B
:10849000C0F3C040704700BF000002A8014B024A71
:1084A0001A607047C40C00207173000038B515467F
:1084B0000446FEF735FD05F0F7012046FFF776F993
:1084C00000224FF4C021204603F04AF8002038BDB6
:1084D000802103F059B8000000220149FFF7E6BFF0
:1084E000D0DA00007FB5531C8DF8141005AA090AD4
:1084F0008DF81510029202210022DBB2CDE9002195
:10850000114603F04DF807B05DF804FB7FB58DF818
:10851000141005AB090A8DF81510029304210223EB
:108520000132CDE90031D3B20121002203F038F845
:1085300007B05DF804FB1FB500230291082101324A
:10854000CDE90031D3B20122114603F029F805B07C
:108550005DF804FB10B5FF224FF6FF710446FFF7EC
:10856000C1FF68B9FF224FF6FF712046FFF7CEFF2B
:1085700030B92046BDE81040FF220249FFF7DBBFBB
:1085800010BD00BFA4BE000008B50A044FF480313E
:1085900002F0E6FF002008BD490508B531F0BC63D4
:1085A00001F0BC6205D14FF0BC6102F0D9FF0020A0
:1085B00008BD0120FCE700002DE9F041DFF86880EC
:1085C0000546D8F800001C460E46174601F01CFA76
:1085D000D8F80C3023B1D8F80830186801F014FA34
:1085E0000F4BDA681AB19B68186801F00DFA9DF814
:1085F0001810630743EA0744490544EAC66201F0DC
:10860000BC610A432846074942F4C87202F0A8FF39
:10861000002228461146FFF703FC0020BDE8F08148
:10862000D0DA00009007E12DCCD700004078053863
:1086300001288CBF002001207047000021B142F2C8
:1086400001020A4BC3F82822431EDBB2FD2B0AD9D4
:108650000A68064BFF28C3F8502206D14A68034B2C
:10866000C3F8542270470128F7E77047004001A87B
:1086700058B5064610460C46FFF7E0FFCEB1736FC3
:10868000BBB15B69ABB1421ED2B2FD2A13D90A68F5
:10869000013204BF6FF001020A600A68FF281A6005
:1086A00007D16268013202D16FF001026260626834
:1086B0005A60002058BD0128F2E74FF0FF3313B590
:1086C000CDE9003349B1D418E4B2FD2C0AD90B60CE
:1086D000FF2A02D14FF0FF334B606946FFF7C8FF16
:1086E00002B010BD012AF4E707B50C4B0822197837
:1086F00089B90B49C1F8FC234FF0FF32CDE90022C4
:10870000084A106800B10C3069461A78FFF7D5FFA7
:1087100003B05DF804FB0449ECE700BFE30100206F
:10872000001002A8A80A0020002002A838B50446BC
:1087300001F0A8F8E0782179174A40EA0143C2F82D
:10874000CC34E579A37943EA0543C2F8D0342378E1
:108750001BB100230422FDF7A7FC63782BB1002393
:108760000422E179A079FDF79FFC227801237AB1F8
:108770000A4AC2F8C834627802235AB1074AC2F8DA
:10878000C834A278064B1A70FFF7AEFF002038BD40
:10879000044AEEE7034AF2E700C0034000D003407A
:1087A000E301002000E00340014B1878704700BF50
:1087B000E30100202DE9F74F06681C469DF8303094
:1087C00006F007060193B31D01269E400546174695
:1087D0000B4606F1FF38A1B1416804EA080BA6EB8D
:1087E0000B0A41F00059524509EB0B0118D95246CA
:1087F000184603F067F94946BA1B5A44504403F03F
:1088000061F9019B4BB13C4448EA06063440EC60F8
:10881000AB68A3421CBF0223AB6203B0BDE8F08F7C
:108820001846ECE7124BD3F8E020D2031ED54FF4E4
:1088300080321049C1F8E020A1F58051C1F8EC2048
:108840001A6CD1B2C2F30722C3F88010C3F880209B
:108850000422C3F880200022C3F88020C3F88020BF
:10886000C3F88020C3F88020C3F88020704700BF81
:10887000004000440060004438B50C4C0D46A26036
:10888000E060FDF703FC0122D4F8E03022635B07CF
:108890005CBF0422064B256158BFC3F8E020FDF7FA
:1088A000F9FB0DB10223236338BD00BF0040004433
:1088B0000060004440F6FF72034B1860034B99635D
:1088C000D863DA65704700BFE80C00200040004420
:1088D0002DE9F04F042A054683B039D901260B78DB
:1088E000141F83614B7801F1040983618B788361E4
:1088F000CB7883610368D0F808B003F00703063330
:108900009E4006F1FF3A0AEA0B084768A6EB080208
:10891000944247F000570ED84946224607EB08001C
:1089200003F0D0F846EA0A0604EB0B023240AA60D4
:1089300003B0BDE8F08F494607EB0800019203F051
:10894000C1F8019A384609EB0201A21B4244E7E74D
:10895000013A032AECD8DFE802F00B08050211F80F
:10896000013B836111F8013BAB6111F8013BAB6145
:108970000B78AB6103B0BDE8F08F00BF37B50025C1
:1089800014460095FFF716FF204603B030BD0000E7
:10899000402938B514464FF001020DD8084DC5F8EE
:1089A000C0200A4601460748FFF792FF34B104236E
:1089B0000020C5F8C03038BD1046FCE72046FAE775
:1089C000004000449840004410B5FDF75FFB0122D1
:1089D0001B4B1C491A66C3F890209A66D96607217A
:1089E000C3F88C10184B194C1980002318490B80C0
:1089F0004FF4A021C4F8E010A4F58054C4F8EC10A2
:108A000014490B60144B1B6F5C0213D54FF48004A8
:108A1000124B13491B680C6783B1996A090609D484
:108A20004FF4001493F8BE300E490C6213B10E4B94
:108A3000C3F80021BDE81040FDF72CBBDB69FFDE69
:108A400000400044F00C0020720D00200060004443
:108A5000700D0020740D0020000002A8A80A00205C
:108A6000002002A8006001A8005001A807220D4BB9
:108A7000F0211A8000220C4B1A800C4BC3F898206E
:108A80004FF40052C3F89C00C3F8BC20084A91641C
:108A9000A021A2F5805291640122C3F8C020FFF703
:108AA00093BF00BF720D0020700D002000400044F5
:108AB000006000A8044B186820B140F001021A6061
:108AC00020F00100704700BF740D00202DE9F04137
:108AD0000446A0B1FDF7DAFA424E434B3188032C2D
:108AE00001F078020546414F01F07F0E1A4464D12F
:108AF000D7F800C0BCF1000F03D1FDF7CBFA03207B
:108B000059E02CF00104386820F00100A04259D14E
:108B100000233B60238894426FEA43436FEA534348
:108B2000238044D1324FDFF8E8C03B88ACF18008A5
:108B3000CC18083B9BB202F10801614528BF4146B1
:108B4000E01A082B80B204D9B1F900E0BEF1000FA1
:108B500043DB947812882749C2F30C023B804A64B5
:108B60004FF48022C0B230804867C1F88C30224B6D
:108B700004F00704C3F8E020FFF754FE042C16D1DC
:108B80004FF480011D4B1E4A1B6F1E4B1B68116763
:108B90002BB39A6A12060AD44FF4001193F8BE3030
:108BA000194A11621BB10122184BC3F80021284653
:108BB000FDF770FA0020BDE8F081601E012898BF23
:108BC0001446A0E70A4873440088E31A48BF80337C
:108BD000083898429EDC28468FE70A46A9E7DB69F9
:108BE000FFDE00BF700D0020F00C0020740D00208F
:108BF000720D00200040004400600044000002A804
:108C0000002002A8A80A0020006001A8005001A8C6
:108C1000700D00201048114A0388128810491A4428
:108C2000073A02F078020A4408330E499BB20380E7
:108C3000C1F88C304FF4802190780B4B00F0070086
:108C40000428C3F8E01003D10849CB681B03FCD407
:108C5000074B1A60704700BF720D0020700D002096
:108C6000F00C00200040004400600044000002A816
:108C7000740D002010B5054C206828B1C30701D43D
:108C8000FFF724FF0023236010BD00BF740D0020F8
:108C90004FF48033084AC2F8EC30A2F58052C2F893
:108CA000E030064BD3F88830C3F30C03782B01D89F
:108CB000FFF7B8BD704700BF0060004400400044AB
:108CC0002DE9F04705460E461446FDF7DFF9564BF1
:108CD00081461988554F564801F07802032DB0F8A7
:108CE00000C001F07F033A4418D15248056895B995
:108CF00001EB0C05073D05F078053D443B44EB1ABC
:108D000048BF8033634511DB4846FDF7C3F90025B2
:108D10002846BDE8F08725F00105EFE7012D03D0D7
:108D2000022DEBD1ACF1080C1546E7E70EB9002C8B
:108D30004BD095424DD1404A576CBFB204B1278009
:108D40003D498A6B002E40D002F0070A0AF1060264
:108D50004FF0010A0AFA02FAD1F888201FFA8AF8BD
:108D6000C2F30C029A4246DDB5F900302C88002B84
:108D7000CADBAB78C4F30C0408F1FF3203F007033D
:108D8000E41B48EA02021440052B3370A4B22AD82F
:108D900024B2E0434FF477720421C00FFEF7A0F92C
:108DA0007480EB78337408F1FF331F40234B1B684A
:108DB000DA19B260A2B217FA84F45445D3BF002383
:108DC000A8EB0707B780B280F3604846FDF762F969
:108DD0009EE7A5F10802BA4238BF05F1780217886C
:108DE000C7F30C07AAE7164B5B6D002B0CBF0023E3
:108DF0000623E41ACCE70B6C08F1FF34DB1B48EACE
:108E000004041C400F4AA1B2D36824B251B9C3F381
:108E10000363032B0CBF082300233370936F71800F
:108E20001B0ABFE70823F8E7700D0020F00C0020B4
:108E3000720D0020740D002000400044E80C00205A
:108E4000004000A8000002A8054B6C22D3F84C019A
:108E50003121431C0CBF0120C0F38070FEF740B9E4
:108E60000080E00F40001AB1022894BF00200338B0
:108E7000FA2301F01F0188405843034B1B68B0FBE5
:108E8000F3F00A23584370477C0D002010B50446C8
:108E900008460F21FFF7E6FFB4FA84F3B0FA80F139
:108EA00002465B1A002BD1BF0F20C3F10F0003F065
:108EB0001F03DA40A24288BF00F1FF3010BD00005E
:108EC0006FF07F4208B5134BD3F8FC37934217D0AD
:108ED000114A03F03F011170C3F30332C3F30321BE
:108EE0000F39C2EB02120A440C490A70C3F3035251
:108EF000C3F30343C2EB02120F3B1344084A13703F
:108F000000F00AFD41F66A03B0FBF3F0054B186070
:108F100008BD00BF000002A8FA010020FB010020EC
:108F2000F90100207C0D0020012807D0022802D082
:108F300030B100207047034B18787047024BFBE7B5
:108F4000024BF9E7FA010020FB010020F9010020A3
:108F50000023F0B590F8C01085B002460846CDE970
:108F60000133CDF80B30FFF7DFFF9379013800298B
:108F700040D001293CD1042419464FF00F0C3C4E3F
:108F80000DEB0405B1FBFCF7F75D013CC91BC9B251
:108F9000814288BF00216155002CF3D105214FF09B
:108FA0000F0C8DF80830C7B2B3FBFCF4345D2344DA
:108FB000DBB2834228BF3B466B5401310B29F3D10E
:108FC0002E460F2002F1F00402F58E7216F8013BD6
:108FD000B3FBF0F14D1CC1EB01115B1A0133DBB2A5
:108FE000EDB21B0443EA055344F8043BA242EDD121
:108FF00005B0F0BD042419464FF00F0C1D4F0DEBCA
:109000000406B1FBFCF5EDB27D5D013C491BC9B224
:10901000814288BF0021A155002CF2D105214FF0DB
:109020000F0C8DF80830C5B2B3FBFCF43C5D234453
:10903000DBB2834228BF2B46735401310B29F3D195
:109040000F2502F1F00402F58E7216F8013BB3FB16
:10905000F5F1481CC1EB01115B1A0133DBB2C0B260
:109060001B0443EA005344F8043BA242EDD1BFE79E
:10907000C4BE0000CBBE000038B5244B04461978AE
:10908000234A042902D1FF20107038BD0846FFF79B
:109090004BFFA04228BF20461378C0B28342F4D0D1
:1090A000107008B10138C0B202290DD14FF0FC6137
:1090B000184BC3F8FC101849D1F8FC3043EA405073
:1090C000C1F8FC001078E0E7144B1B6803B10C33C7
:1090D0001349F033C1F8BC3F4FF47F010D4BC3F887
:1090E00008110D49CB6FDB02ECD40F23B0FBF3F377
:1090F0005D1CC3EB0313C31A0133D1F808411B04F1
:1091000043EA05532343C1F80831DBE7EA010020B5
:10911000E8010020002002A8000002A8A80A002000
:10912000001000B0014B1868704700BF800D002090
:109130002DE9F74F90F8C0908046D0F84411B9F16E
:10914000000F29D11F2938BF1F210939964B1A6AF0
:10915000C2F38212931E012B23D9931FD3F1000A6D
:109160004AEB030A914C5046236898F806508B420C
:10917000DFF860B28E4B17D11E78564514D18D4A58
:1091800016784E4510D18C4A1678AE420CD1BBF8F9
:10919000040003B0BDE8F08F032938BF0321023972
:1091A000D4E74FF0010ADDE718709BF8000021605A
:1091B000FFF7BAFEA84212D3012D14D80025BAF148
:1091C000000F12D0D8F878502DB12B68082B40F240
:1091D000D78095F83850B9F1000F10D157E0012829
:1091E000ECD9451EEBE7013DE9E7B9F1010F1FD0CE
:1091F000B9F1020F03D0B9F1000F2AD055464FF450
:109200007A7048430122294600F2E730FFF73EFE1C
:10921000040244EA00140146012204432846FFF7F1
:1092200021FE2E0446EA05262E4300F5FA6571E07C
:109230000F23EDB2B5FBF3F3581CC3EB0313ED1A88
:109240000135EDB2C0B22D0445EA0055C5F307451E
:10925000D5E75A4C5A4B24781868002C00F09280BD
:10926000B0F1A06FC0F08E80D3F85002013000F052
:1092700089800F20B5FBF0F5681C042870D8FF200A
:10928000ED00D3F85032A840184020FA05F54FF40D
:109290007A774F432E0407F2E737BAF1000F73D104
:1092A000292064237843403D52462946B0FBF3F021
:1092B000FFF7ECFD5246014604462846FFF7D2FD73
:1092C0003F1A05462A20642378433021B0FBF3F08F
:1092D000FFF7DCFD5246014601903020FFF7C2FD4A
:1092E000012282461021381AFFF7D0FD01220746DD
:1092F00001461020FFF7B6FD019B240244EA031447
:1093000046F48046AA443C4346F0100650442D4B98
:109310001D68054440F6FF722B4B2846C3F8C02059
:10932000A3F58053C3F8C040A3F58053274CC3F87E
:10933000C460256000F01EFF254B404218664FF4C4
:109340007A7023681C4AB3FBF0F3ABF80430194B76
:10935000B5FBF0F083F8009098F80630137018E72A
:1093600008284FF0FF0095BF043D083DD3F8544254
:10937000D3F85842EB0000FA03F52540DD4086E7BC
:10938000002528E7C82582E7002229463846FFF74E
:109390007DFD04460146002228462402FFF762FDB7
:1093A00044F01104B3E700BF004001A8E40100202D
:1093B000780D0020F1010020F0010020F8010020CC
:1093C0000080E00FF4010020006001A8800D002063
:1093D000001F00B0EA01002038B50546314C00F00E
:1093E00051FA314B1D702378013B012B0CD801221F
:1093F000217CE37B8A4030214B4342F2100103F190
:10940000804303F570335A500022284BC3F884245C
:10941000002D3FD063689BB300F07EFA626800EBDA
:109420005203B3FBF2F3013B1B0243F0F803227833
:10943000022A27D0032A29D0012A2ED1072243F05D
:1094400002034FF6FF701A49C1F88400A1F580515C
:10945000C1F88430154BC3F88424920709D5012242
:10946000207CE17B8240302000FB013341F210017F
:109470005A504FF0804395B10E4A0020D36738BD53
:10948000F823D4E7062243F00103DAE7042243F08D
:109490000503D6E72A46F823D3E70022D1E7064A98
:1094A000EBE700BF880D0020840D002000C00340C2
:1094B000006000A8001002A8002002A8034BDB6F88
:1094C000002BBCBF024BC3F888007047000002A805
:1094D000004000A82DE9F0472D4B2E4C4FF47A7632
:1094E000A36000F019FA4FF4FA73B0FBF6F6734379
:1094F00007462948190E1B021818284A4FF0000386
:1095000041F1000102F04EF9A0F580730546236396
:1095100020B960222B21FDF7E3FD01254FF47A727B
:109520004FF0000A6A4353465008310202F03AF9FC
:109530001B4BB7F57A7F19601A4B4FEA05688946CD
:10954000044618604FEA152505D270222B2150469B
:10955000FDF7C6FD01264FF47A71A8FB010801FB57
:1095600005817308C01841F100010023324602F062
:1095700019F90D4B023419600C4B49F10009A4088C
:10958000186044EA8974034B013C9C63BDE8F08792
:109590000211010000C001A820A1070040420F00F5
:1095A000B00D0020AC0D0020A80D0020A40D00205F
:1095B0001022044BC3F884215A600122024BDA6066
:1095C000704700BF00E100E000C001A8054B0201A8
:1095D000134401221A604FF4807303FA00F0024B27
:1095E0005866704700E101A800E001A8034B103065
:1095F0000001185800F00100704700BF00C001A82A
:10960000044B01F0F071103041F0030100011950DA
:10961000704700BF00C001A838B5FCF73EFD084BFD
:10962000084A1D6A547D5A6EE4B2520744BF1D6A4F
:109630000134FCF736FD284604F0030138BD00BFB5
:1096400000C001A81C0E002008B52220FFF736FF3D
:109650004FF48022014BDA6008BD00BF00C001A8B2
:10966000064B1B68434303EB8171054B1B68A3FB4F
:10967000003013F1004341EB00007047A80D0020BB
:10968000A40D002008B5FFF7C7FFBDE80840FFF7AD
:10969000E7BF10B50446FFF7BFFF844288BF01F162
:1096A000FF312046BDE8104001F00301FFF7D8BFAD
:1096B0000C4A20F04043014610B5002014684FF0DA
:1096C0000042E4FB0320084A890F126802FB0300F2
:1096D000064B9B6B984204D901330131C01A01F04B
:1096E000030110BDAC0D0020B00D002000C001A88A
:1096F00038B50446FFF7C6FF0546FFF7C3FF431B17
:10970000A342FAD338BD000008B5064B4FF03040F5
:109710001A680549920002F0D5F9BDE8084000F04A
:10972000ABBE00BFC8D70000E8BE000070B50C6833
:10973000651C03D100230360012313E0C4F3026618
:109740009E42C4F307450FD1A4B294420CD804EB57
:109750008506B24208D2131B23F00303CA185368CC
:1097600003600023037170BD013501EB8501DEE765
:10977000044BC0F3016233F8123080B240EA034078
:10978000704700BFD8BE00007FB50C468AB2090CF6
:10979000B1F5284F06460B4612D04AF60100814229
:1097A00010D04AF602018B420ED0B3F5304F0CBFF9
:1097B00003250425736F4BB9336FBBB9206813E0E1
:1097C0000025F7E70125F5E70225F3E719680029E9
:1097D000F2D02B4602A80192FFF7A8FF9DF80C30AB
:1097E0000298019A002BE7D104B070BD19680029D6
:1097F000E4D02B4602A8FFF799FF9DF80C300298A1
:10980000002BDBD1F0E7000007B501A8FCF740FD15
:109810004822074B5A65074AD2F8D43023F4FC3368
:10982000C2F8D430044B1B6803B05DF804FB00BFE2
:10983000008001A8000002A8002000B00022012141
:109840000C4B10B51A675A679A670B4A5161DA6870
:1098500012F0706FFBD14FF0304201245A6602F5CE
:10986000FC5214329C66DA64044B1B689847044B24
:109870005C6110BD000002A8001002A8FC010020DD
:10988000002002A801230F4A0F49C2F880328A6AD9
:1098900022F002028A620D4A53600D4A53600D4A5B
:1098A0005360A2F580425360A2F54042536002F536
:1098B000C032536002F580425360A2F5004253600B
:1098C000704700BF0080004000C0004000C000A8FA
:1098D00000400044004001A808B5FFF7D3FFFFF7A0
:1098E00093FF03220A4BC3F8E0200A4A03F53043F2
:1098F000DA67012203F58053DA674FF460725A6128
:109900004FF40072DA67BDE80840FEF7EDBE00BF15
:10991000005001A80008F000FCF7B4BE2DE9F04F9C
:10992000044685B000900E4656F8045B6B1C06D1C9
:10993000009B2560E01A801005B0BDE8F08F5FEA5B
:10994000157B18BF0121284608BFC5F30741FFF763
:109950000FFF4FEAC1092B4B09F1040222449A423E
:10996000804618D2C5F301620725B2468B000193E9
:1099700008EB8103D54002930BF1FF3305F001059D
:1099800004F108070393029B984509D1019B4C44BD
:1099900033441946C7E71B4B9C42E3D80020CBE772
:1099A000039B062B0BD8DFE803F023040C040C23E5
:1099B000040040F2A74232210020FDF791FB002273
:1099C00007E040F2AC4232212846FDF789FB4FF414
:1099D0008052424447F8082C5AF8042BBBF1010F7F
:1099E00008BFD24308F1040847F8042C0837CAE737
:1099F00040F2B54232212846FDF772FB4FF4005287
:109A0000E7E700BF003000B02DE9F041054610B394
:109A10000024174A1749264690460F4652F8043B41
:109A2000DBB9B00000F13040294600F50150FFF7E6
:109A300075FF034648B940F21F523621BDE8F04198
:109A4000FDF74EBB31F8026BE8E73344013348F8C9
:109A5000245027F81430BDE8F081AB42FBD001342C
:109A60000C2CEFD140F22D5236210020E6E700BF4A
:109A7000B40D0020E40D002070B50446B8B1E9B182
:109A8000002213462C492D4851F8045BA54212D1FF
:109A90002B498A689206FCD49B002A4A03F1304382
:109AA00003F50153C2F8A8302022274B9A6070BDFD
:109AB00030F8023BE8E701320C2AF9D1012517E022
:109AC00043F8040B24E0090F6068083407290FD815
:109AD000DFE801F00A0408270C252A2DC04303F50E
